{
  "_format": "hh-sol-artifact-1",
  "contractName": "CertificateRegister",
  "sourceName": "contracts/CertificateRegister.sol",
  "abi": [
    {
      "inputs": [
        {
          "internalType": "address",
          "name": "",
          "type": "address"
        }
      ],
      "name": "certificates",
      "outputs": [
        {
          "internalType": "string",
          "name": "commitment",
          "type": "string"
        },
        {
          "internalType": "string",
          "name": "hash",
          "type": "string"
        },
        {
          "internalType": "address",
          "name": "requester",
          "type": "address"
        }
      ],
      "stateMutability": "view",
      "type": "function"
    },
    {
      "inputs": [
        {
          "internalType": "address",
          "name": "user",
          "type": "address"
        }
      ],
      "name": "getCertificate",
      "outputs": [
        {
          "internalType": "string",
          "name": "",
          "type": "string"
        },
        {
          "internalType": "string",
          "name": "",
          "type": "string"
        },
        {
          "internalType": "address",
          "name": "",
          "type": "address"
        }
      ],
      "stateMutability": "view",
      "type": "function"
    },
    {
      "inputs": [
        {
          "internalType": "address",
          "name": "user",
          "type": "address"
        },
        {
          "internalType": "string",
          "name": "commitment",
          "type": "string"
        },
        {
          "internalType": "string",
          "name": "hash",
          "type": "string"
        }
      ],
      "name": "storeCertificate",
      "outputs": [],
      "stateMutability": "nonpayable",
      "type": "function"
    }
  ],
  "bytecode": "0x6080604052348015600f57600080fd5b50610b528061001f6000396000f3fe608060405234801561001057600080fd5b50600436106100405760003560e01c806216e52614610045578063a3cc5a2214610077578063fd531e9314610093575b600080fd5b61005f600480360381019061005a9190610563565b6100c5565b60405161006e9392919061062f565b60405180910390f35b610091600480360381019061008c91906107a9565b61021f565b005b6100ad60048036038101906100a89190610563565b610309565b6040516100bc9392919061062f565b60405180910390f35b60006020528060005260406000206000915090508060000180546100e890610863565b80601f016020809104026020016040519081016040528092919081815260200182805461011490610863565b80156101615780601f1061013657610100808354040283529160200191610161565b820191906000526020600020905b81548152906001019060200180831161014457829003601f168201915b50505050509080600101805461017690610863565b80601f01602080910402602001604051908101604052809291908181526020018280546101a290610863565b80156101ef5780601f106101c4576101008083540402835291602001916101ef565b820191906000526020600020905b8154815290600101906020018083116101d257829003601f168201915b5050505050908060020160009054906101000a900473ffffffffffffffffffffffffffffffffffffffff16905083565b60405180606001604052808381526020018281526020013373ffffffffffffffffffffffffffffffffffffffff168152506000808573ffffffffffffffffffffffffffffffffffffffff1673ffffffffffffffffffffffffffffffffffffffff16815260200190815260200160002060008201518160000190816102a39190610a4a565b5060208201518160010190816102b99190610a4a565b5060408201518160020160006101000a81548173ffffffffffffffffffffffffffffffffffffffff021916908373ffffffffffffffffffffffffffffffffffffffff160217905550905050505050565b6060806000806000808673ffffffffffffffffffffffffffffffffffffffff1673ffffffffffffffffffffffffffffffffffffffff16815260200190815260200160002060405180606001604052908160008201805461036890610863565b80601f016020809104026020016040519081016040528092919081815260200182805461039490610863565b80156103e15780601f106103b6576101008083540402835291602001916103e1565b820191906000526020600020905b8154815290600101906020018083116103c457829003601f168201915b505050505081526020016001820180546103fa90610863565b80601f016020809104026020016040519081016040528092919081815260200182805461042690610863565b80156104735780601f1061044857610100808354040283529160200191610473565b820191906000526020600020905b81548152906001019060200180831161045657829003601f168201915b505050505081526020016002820160009054906101000a900473ffffffffffffffffffffffffffffffffffffffff1673ffffffffffffffffffffffffffffffffffffffff1673ffffffffffffffffffffffffffffffffffffffff16815250509050806000015181602001518260400151935093509350509193909250565b6000604051905090565b600080fd5b600080fd5b600073ffffffffffffffffffffffffffffffffffffffff82169050919050565b600061053082610505565b9050919050565b61054081610525565b811461054b57600080fd5b50565b60008135905061055d81610537565b92915050565b600060208284031215610579576105786104fb565b5b60006105878482850161054e565b91505092915050565b600081519050919050565b600082825260208201905092915050565b60005b838110156105ca5780820151818401526020810190506105af565b60008484015250505050565b6000601f19601f8301169050919050565b60006105f282610590565b6105fc818561059b565b935061060c8185602086016105ac565b610615816105d6565b840191505092915050565b61062981610525565b82525050565b6000606082019050818103600083015261064981866105e7565b9050818103602083015261065d81856105e7565b905061066c6040830184610620565b949350505050565b600080fd5b600080fd5b7f4e487b7100000000000000000000000000000000000000000000000000000000600052604160045260246000fd5b6106b6826105d6565b810181811067ffffffffffffffff821117156106d5576106d461067e565b5b80604052505050565b60006106e86104f1565b90506106f482826106ad565b919050565b600067ffffffffffffffff8211156107145761071361067e565b5b61071d826105d6565b9050602081019050919050565b82818337600083830152505050565b600061074c610747846106f9565b6106de565b90508281526020810184848401111561076857610767610679565b5b61077384828561072a565b509392505050565b600082601f8301126107905761078f610674565b5b81356107a0848260208601610739565b91505092915050565b6000806000606084860312156107c2576107c16104fb565b5b60006107d08682870161054e565b935050602084013567ffffffffffffffff8111156107f1576107f0610500565b5b6107fd8682870161077b565b925050604084013567ffffffffffffffff81111561081e5761081d610500565b5b61082a8682870161077b565b9150509250925092565b7f4e487b7100000000000000000000000000000000000000000000000000000000600052602260045260246000fd5b6000600282049050600182168061087b57607f821691505b60208210810361088e5761088d610834565b5b50919050565b60008190508160005260206000209050919050565b60006020601f8301049050919050565b600082821b905092915050565b6000600883026108f67fffffffffffffffffffffffffffffffffffffffffffffffffffffffffffffffff826108b9565b61090086836108b9565b95508019841693508086168417925050509392505050565b6000819050919050565b6000819050919050565b600061094761094261093d84610918565b610922565b610918565b9050919050565b6000819050919050565b6109618361092c565b61097561096d8261094e565b8484546108c6565b825550505050565b600090565b61098a61097d565b610995818484610958565b505050565b5b818110156109b9576109ae600082610982565b60018101905061099b565b5050565b601f8211156109fe576109cf81610894565b6109d8846108a9565b810160208510156109e7578190505b6109fb6109f3856108a9565b83018261099a565b50505b505050565b600082821c905092915050565b6000610a2160001984600802610a03565b1980831691505092915050565b6000610a3a8383610a10565b9150826002028217905092915050565b610a5382610590565b67ffffffffffffffff811115610a6c57610a6b61067e565b5b610a768254610863565b610a818282856109bd565b600060209050601f831160018114610ab45760008415610aa2578287015190505b610aac8582610a2e565b865550610b14565b601f198416610ac286610894565b60005b82811015610aea57848901518255600182019150602085019450602081019050610ac5565b86831015610b075784890151610b03601f891682610a10565b8355505b6001600288020188555050505b50505050505056fea264697066735822122016895374a5556718ee81f1b0d5b7b48f0f1da23e64bb6be0c4ce01762f57020e64736f6c634300081b0033",
  "linkReferences": {},
  "deployedLinkReferences": {}
}