{
  "_format": "hh-sol-artifact-1",
  "contractName": "CertificateRegister",
  "sourceName": "contracts/CertificateRegister.sol",
  "abi": [
    {
      "inputs": [
        {
          "internalType": "address[]",
          "name": "_govtOfficials",
          "type": "address[]"
        }
      ],
      "stateMutability": "nonpayable",
      "type": "constructor"
    },
    {
      "inputs": [
        {
          "internalType": "uint256",
          "name": "",
          "type": "uint256"
        }
      ],
      "name": "all_certs",
      "outputs": [
        {
          "internalType": "string",
          "name": "commitment",
          "type": "string"
        },
        {
          "internalType": "string",
          "name": "hash",
          "type": "string"
        },
        {
          "internalType": "bool",
          "name": "verified",
          "type": "bool"
        },
        {
          "internalType": "address",
          "name": "requester",
          "type": "address"
        },
        {
          "internalType": "address",
          "name": "verifier",
          "type": "address"
        }
      ],
      "stateMutability": "view",
      "type": "function"
    },
    {
      "inputs": [
        {
          "internalType": "address",
          "name": "",
          "type": "address"
        }
      ],
      "name": "certificates",
      "outputs": [
        {
          "internalType": "string",
          "name": "commitment",
          "type": "string"
        },
        {
          "internalType": "string",
          "name": "hash",
          "type": "string"
        },
        {
          "internalType": "bool",
          "name": "verified",
          "type": "bool"
        },
        {
          "internalType": "address",
          "name": "requester",
          "type": "address"
        },
        {
          "internalType": "address",
          "name": "verifier",
          "type": "address"
        }
      ],
      "stateMutability": "view",
      "type": "function"
    },
    {
      "inputs": [
        {
          "internalType": "address",
          "name": "_user",
          "type": "address"
        }
      ],
      "name": "getCertificate",
      "outputs": [
        {
          "internalType": "string",
          "name": "commitment",
          "type": "string"
        },
        {
          "internalType": "string",
          "name": "hash",
          "type": "string"
        },
        {
          "internalType": "bool",
          "name": "verified",
          "type": "bool"
        },
        {
          "internalType": "address",
          "name": "requester",
          "type": "address"
        },
        {
          "internalType": "address",
          "name": "verifier",
          "type": "address"
        }
      ],
      "stateMutability": "view",
      "type": "function"
    },
    {
      "inputs": [],
      "name": "getUnverifiedCertificates",
      "outputs": [
        {
          "components": [
            {
              "internalType": "string",
              "name": "commitment",
              "type": "string"
            },
            {
              "internalType": "string",
              "name": "hash",
              "type": "string"
            },
            {
              "internalType": "bool",
              "name": "verified",
              "type": "bool"
            },
            {
              "internalType": "address",
              "name": "requester",
              "type": "address"
            },
            {
              "internalType": "address",
              "name": "verifier",
              "type": "address"
            }
          ],
          "internalType": "struct CertificateRegister.Certificate[]",
          "name": "",
          "type": "tuple[]"
        }
      ],
      "stateMutability": "view",
      "type": "function"
    },
    {
      "inputs": [],
      "name": "getVerifiedCertificates",
      "outputs": [
        {
          "components": [
            {
              "internalType": "string",
              "name": "commitment",
              "type": "string"
            },
            {
              "internalType": "string",
              "name": "hash",
              "type": "string"
            },
            {
              "internalType": "bool",
              "name": "verified",
              "type": "bool"
            },
            {
              "internalType": "address",
              "name": "requester",
              "type": "address"
            },
            {
              "internalType": "address",
              "name": "verifier",
              "type": "address"
            }
          ],
          "internalType": "struct CertificateRegister.Certificate[]",
          "name": "",
          "type": "tuple[]"
        }
      ],
      "stateMutability": "view",
      "type": "function"
    },
    {
      "inputs": [
        {
          "internalType": "uint256",
          "name": "",
          "type": "uint256"
        }
      ],
      "name": "govtOfficials",
      "outputs": [
        {
          "internalType": "address",
          "name": "",
          "type": "address"
        }
      ],
      "stateMutability": "view",
      "type": "function"
    },
    {
      "inputs": [
        {
          "internalType": "string",
          "name": "_commitment",
          "type": "string"
        },
        {
          "internalType": "string",
          "name": "_hash",
          "type": "string"
        },
        {
          "internalType": "address",
          "name": "_requester",
          "type": "address"
        }
      ],
      "name": "registerCertificate",
      "outputs": [],
      "stateMutability": "nonpayable",
      "type": "function"
    },
    {
      "inputs": [
        {
          "internalType": "address",
          "name": "_user",
          "type": "address"
        }
      ],
      "name": "validateCertificate",
      "outputs": [],
      "stateMutability": "nonpayable",
      "type": "function"
    }
  ],
  "bytecode": "0x608060405234801561001057600080fd5b506040516128fe3803806128fe83398181016040528101906100329190610305565b6000815111610076576040517f08c379a000000000000000000000000000000000000000000000000000000000815260040161006d906103d1565b60405180910390fd5b806002908051906020019061008c929190610093565b50506103f1565b82805482825590600052602060002090810192821561010c579160200282015b8281111561010b5782518260006101000a81548173ffffffffffffffffffffffffffffffffffffffff021916908373ffffffffffffffffffffffffffffffffffffffff160217905550916020019190600101906100b3565b5b509050610119919061011d565b5090565b5b8082111561013657600081600090555060010161011e565b5090565b6000604051905090565b600080fd5b600080fd5b600080fd5b6000601f19601f8301169050919050565b7f4e487b7100000000000000000000000000000000000000000000000000000000600052604160045260246000fd5b61019c82610153565b810181811067ffffffffffffffff821117156101bb576101ba610164565b5b80604052505050565b60006101ce61013a565b90506101da8282610193565b919050565b600067ffffffffffffffff8211156101fa576101f9610164565b5b602082029050602081019050919050565b600080fd5b600073ffffffffffffffffffffffffffffffffffffffff82169050919050565b600061023b82610210565b9050919050565b61024b81610230565b811461025657600080fd5b50565b60008151905061026881610242565b92915050565b600061028161027c846101df565b6101c4565b905080838252602082019050602084028301858111156102a4576102a361020b565b5b835b818110156102cd57806102b98882610259565b8452602084019350506020810190506102a6565b5050509392505050565b600082601f8301126102ec576102eb61014e565b5b81516102fc84826020860161026e565b91505092915050565b60006020828403121561031b5761031a610144565b5b600082015167ffffffffffffffff81111561033957610338610149565b5b610345848285016102d7565b91505092915050565b600082825260208201905092915050565b7f4174206c65617374206f6e6520676f7665726e6d656e74206f6666696369616c60008201527f206d757374206265207370656369666965640000000000000000000000000000602082015250565b60006103bb60328361034e565b91506103c68261035f565b604082019050919050565b600060208201905081810360008301526103ea816103ae565b9050919050565b6124fe806104006000396000f3fe608060405234801561001057600080fd5b50600436106100875760003560e01c806392de58451161005b57806392de58451461012e578063cf1a7eee1461014c578063f47eb9f614610168578063fd531e931461019857610087565b806216e5261461008c578063011d0dd6146100c05780630ab49244146100de5780631267277014610112575b600080fd5b6100a660048036038101906100a1919061179a565b6101cc565b6040516100b7959493929190611881565b60405180910390f35b6100c861035f565b6040516100d59190611a89565b60405180910390f35b6100f860048036038101906100f39190611ae1565b6106c2565b604051610109959493929190611881565b60405180910390f35b61012c60048036038101906101279190611c43565b610865565b005b610136610cc6565b6040516101439190611a89565b60405180910390f35b6101666004803603810190610161919061179a565b61102b565b005b610182600480360381019061017d9190611ae1565b6113ad565b60405161018f9190611cce565b60405180910390f35b6101b260048036038101906101ad919061179a565b6113ec565b6040516101c3959493929190611881565b60405180910390f35b60006020528060005260406000206000915090508060000180546101ef90611d18565b80601f016020809104026020016040519081016040528092919081815260200182805461021b90611d18565b80156102685780601f1061023d57610100808354040283529160200191610268565b820191906000526020600020905b81548152906001019060200180831161024b57829003601f168201915b50505050509080600101805461027d90611d18565b80601f01602080910402602001604051908101604052809291908181526020018280546102a990611d18565b80156102f65780601f106102cb576101008083540402835291602001916102f6565b820191906000526020600020905b8154815290600101906020018083116102d957829003601f168201915b5050505050908060020160009054906101000a900460ff16908060020160019054906101000a900473ffffffffffffffffffffffffffffffffffffffff16908060030160009054906101000a900473ffffffffffffffffffffffffffffffffffffffff16905085565b60606000805b6001805490508110156103c5576001818154811061038657610385611d49565b5b906000526020600020906004020160020160009054906101000a900460ff166103b85781806103b490611da7565b9250505b8080600101915050610365565b5060008167ffffffffffffffff8111156103e2576103e1611b18565b5b60405190808252806020026020018201604052801561041b57816020015b6104086116cb565b8152602001906001900390816104005790505b5090506000805b6001805490508110156106b8576001818154811061044357610442611d49565b5b906000526020600020906004020160020160009054906101000a900460ff166106ab576001818154811061047a57610479611d49565b5b90600052602060002090600402016040518060a00160405290816000820180546104a390611d18565b80601f01602080910402602001604051908101604052809291908181526020018280546104cf90611d18565b801561051c5780601f106104f15761010080835404028352916020019161051c565b820191906000526020600020905b8154815290600101906020018083116104ff57829003601f168201915b5050505050815260200160018201805461053590611d18565b80601f016020809104026020016040519081016040528092919081815260200182805461056190611d18565b80156105ae5780601f10610583576101008083540402835291602001916105ae565b820191906000526020600020905b81548152906001019060200180831161059157829003601f168201915b505050505081526020016002820160009054906101000a900460ff161515151581526020016002820160019054906101000a900473ffffffffffffffffffffffffffffffffffffffff1673ffffffffffffffffffffffffffffffffffffffff1673ffffffffffffffffffffffffffffffffffffffff1681526020016003820160009054906101000a900473ffffffffffffffffffffffffffffffffffffffff1673ffffffffffffffffffffffffffffffffffffffff1673ffffffffffffffffffffffffffffffffffffffff168152505083838151811061069157610690611d49565b5b602002602001018190525081806106a790611da7565b9250505b8080600101915050610422565b5081935050505090565b600181815481106106d257600080fd5b90600052602060002090600402016000915090508060000180546106f590611d18565b80601f016020809104026020016040519081016040528092919081815260200182805461072190611d18565b801561076e5780601f106107435761010080835404028352916020019161076e565b820191906000526020600020905b81548152906001019060200180831161075157829003601f168201915b50505050509080600101805461078390611d18565b80601f01602080910402602001604051908101604052809291908181526020018280546107af90611d18565b80156107fc5780601f106107d1576101008083540402835291602001916107fc565b820191906000526020600020905b8154815290600101906020018083116107df57829003601f168201915b5050505050908060020160009054906101000a900460ff16908060020160019054906101000a900473ffffffffffffffffffffffffffffffffffffffff16908060030160009054906101000a900473ffffffffffffffffffffffffffffffffffffffff16905085565b60008351116108a9576040517f08c379a00000000000000000000000000000000000000000000000000000000081526004016108a090611e3b565b60405180910390fd5b60008251116108ed576040517f08c379a00000000000000000000000000000000000000000000000000000000081526004016108e490611ea7565b60405180910390fd5b600073ffffffffffffffffffffffffffffffffffffffff166000808373ffffffffffffffffffffffffffffffffffffffff1673ffffffffffffffffffffffffffffffffffffffff16815260200190815260200160002060020160019054906101000a900473ffffffffffffffffffffffffffffffffffffffff1673ffffffffffffffffffffffffffffffffffffffff16146109bd576040517f08c379a00000000000000000000000000000000000000000000000000000000081526004016109b490611f39565b60405180910390fd5b600060028054905082426040516020016109d8929190611fc2565b6040516020818303038152906040528051906020012060001c6109fb919061201d565b9050600060028281548110610a1357610a12611d49565b5b9060005260206000200160009054906101000a900473ffffffffffffffffffffffffffffffffffffffff16905060006040518060a001604052808781526020018681526020016000151581526020018573ffffffffffffffffffffffffffffffffffffffff1681526020018373ffffffffffffffffffffffffffffffffffffffff168152509050806000808673ffffffffffffffffffffffffffffffffffffffff1673ffffffffffffffffffffffffffffffffffffffff1681526020019081526020016000206000820151816000019081610aee91906121fa565b506020820151816001019081610b0491906121fa565b5060408201518160020160006101000a81548160ff02191690831515021790555060608201518160020160016101000a81548173ffffffffffffffffffffffffffffffffffffffff021916908373ffffffffffffffffffffffffffffffffffffffff16021790555060808201518160030160006101000a81548173ffffffffffffffffffffffffffffffffffffffff021916908373ffffffffffffffffffffffffffffffffffffffff16021790555090505060018190806001815401808255809150506001900390600052602060002090600402016000909190919091506000820151816000019081610bf791906121fa565b506020820151816001019081610c0d91906121fa565b5060408201518160020160006101000a81548160ff02191690831515021790555060608201518160020160016101000a81548173ffffffffffffffffffffffffffffffffffffffff021916908373ffffffffffffffffffffffffffffffffffffffff16021790555060808201518160030160006101000a81548173ffffffffffffffffffffffffffffffffffffffff021916908373ffffffffffffffffffffffffffffffffffffffff1602179055505050505050505050565b60606000805b600180549050811015610d2d5760018181548110610ced57610cec611d49565b5b906000526020600020906004020160020160009054906101000a900460ff1615610d20578180610d1c90611da7565b9250505b8080600101915050610ccc565b5060008167ffffffffffffffff811115610d4a57610d49611b18565b5b604051908082528060200260200182016040528015610d8357816020015b610d706116cb565b815260200190600190039081610d685790505b5090506000805b6001805490508110156110215760018181548110610dab57610daa611d49565b5b906000526020600020906004020160020160009054906101000a900460ff16156110145760018181548110610de357610de2611d49565b5b90600052602060002090600402016040518060a0016040529081600082018054610e0c90611d18565b80601f0160208091040260200160405190810160405280929190818152602001828054610e3890611d18565b8015610e855780601f10610e5a57610100808354040283529160200191610e85565b820191906000526020600020905b815481529060010190602001808311610e6857829003601f168201915b50505050508152602001600182018054610e9e90611d18565b80601f0160208091040260200160405190810160405280929190818152602001828054610eca90611d18565b8015610f175780601f10610eec57610100808354040283529160200191610f17565b820191906000526020600020905b815481529060010190602001808311610efa57829003601f168201915b505050505081526020016002820160009054906101000a900460ff161515151581526020016002820160019054906101000a900473ffffffffffffffffffffffffffffffffffffffff1673ffffffffffffffffffffffffffffffffffffffff1673ffffffffffffffffffffffffffffffffffffffff1681526020016003820160009054906101000a900473ffffffffffffffffffffffffffffffffffffffff1673ffffffffffffffffffffffffffffffffffffffff1673ffffffffffffffffffffffffffffffffffffffff1681525050838381518110610ffa57610ff9611d49565b5b6020026020010181905250818061101090611da7565b9250505b8080600101915050610d8a565b5081935050505090565b600060028054905011611073576040517f08c379a000000000000000000000000000000000000000000000000000000000815260040161106a90612318565b60405180910390fd5b6000805b60028054905081101561110b573373ffffffffffffffffffffffffffffffffffffffff16600282815481106110af576110ae611d49565b5b9060005260206000200160009054906101000a900473ffffffffffffffffffffffffffffffffffffffff1673ffffffffffffffffffffffffffffffffffffffff16036110fe576001915061110b565b8080600101915050611077565b508061114c576040517f08c379a0000000000000000000000000000000000000000000000000000000008152600401611143906123aa565b60405180910390fd5b60008060008473ffffffffffffffffffffffffffffffffffffffff1673ffffffffffffffffffffffffffffffffffffffff1681526020019081526020016000209050600073ffffffffffffffffffffffffffffffffffffffff168160020160019054906101000a900473ffffffffffffffffffffffffffffffffffffffff1673ffffffffffffffffffffffffffffffffffffffff1603611221576040517f08c379a000000000000000000000000000000000000000000000000000000000815260040161121890612416565b60405180910390fd5b3373ffffffffffffffffffffffffffffffffffffffff168160030160009054906101000a900473ffffffffffffffffffffffffffffffffffffffff1673ffffffffffffffffffffffffffffffffffffffff16146112b3576040517f08c379a00000000000000000000000000000000000000000000000000000000081526004016112aa906124a8565b60405180910390fd5b60018160020160006101000a81548160ff02191690831515021790555060005b6001805490508110156113a7578373ffffffffffffffffffffffffffffffffffffffff166001828154811061130b5761130a611d49565b5b906000526020600020906004020160020160019054906101000a900473ffffffffffffffffffffffffffffffffffffffff1673ffffffffffffffffffffffffffffffffffffffff160361139a57600180828154811061136d5761136c611d49565b5b906000526020600020906004020160020160006101000a81548160ff0219169083151502179055506113a7565b80806001019150506112d3565b50505050565b600281815481106113bd57600080fd5b906000526020600020016000915054906101000a900473ffffffffffffffffffffffffffffffffffffffff1681565b6060806000806000806000808873ffffffffffffffffffffffffffffffffffffffff1673ffffffffffffffffffffffffffffffffffffffff1681526020019081526020016000206040518060a001604052908160008201805461144e90611d18565b80601f016020809104026020016040519081016040528092919081815260200182805461147a90611d18565b80156114c75780601f1061149c576101008083540402835291602001916114c7565b820191906000526020600020905b8154815290600101906020018083116114aa57829003601f168201915b505050505081526020016001820180546114e090611d18565b80601f016020809104026020016040519081016040528092919081815260200182805461150c90611d18565b80156115595780601f1061152e57610100808354040283529160200191611559565b820191906000526020600020905b81548152906001019060200180831161153c57829003601f168201915b505050505081526020016002820160009054906101000a900460ff161515151581526020016002820160019054906101000a900473ffffffffffffffffffffffffffffffffffffffff1673ffffffffffffffffffffffffffffffffffffffff1673ffffffffffffffffffffffffffffffffffffffff1681526020016003820160009054906101000a900473ffffffffffffffffffffffffffffffffffffffff1673ffffffffffffffffffffffffffffffffffffffff1673ffffffffffffffffffffffffffffffffffffffff16815250509050600073ffffffffffffffffffffffffffffffffffffffff16816060015173ffffffffffffffffffffffffffffffffffffffff160361169e576040517f08c379a000000000000000000000000000000000000000000000000000000000815260040161169590612416565b60405180910390fd5b80600001518160200151826040015183606001518460800151955095509550955095505091939590929450565b6040518060a001604052806060815260200160608152602001600015158152602001600073ffffffffffffffffffffffffffffffffffffffff168152602001600073ffffffffffffffffffffffffffffffffffffffff1681525090565b6000604051905090565b600080fd5b600080fd5b600073ffffffffffffffffffffffffffffffffffffffff82169050919050565b60006117678261173c565b9050919050565b6117778161175c565b811461178257600080fd5b50565b6000813590506117948161176e565b92915050565b6000602082840312156117b0576117af611732565b5b60006117be84828501611785565b91505092915050565b600081519050919050565b600082825260208201905092915050565b60005b838110156118015780820151818401526020810190506117e6565b60008484015250505050565b6000601f19601f8301169050919050565b6000611829826117c7565b61183381856117d2565b93506118438185602086016117e3565b61184c8161180d565b840191505092915050565b60008115159050919050565b61186c81611857565b82525050565b61187b8161175c565b82525050565b600060a082019050818103600083015261189b818861181e565b905081810360208301526118af818761181e565b90506118be6040830186611863565b6118cb6060830185611872565b6118d86080830184611872565b9695505050505050565b600081519050919050565b600082825260208201905092915050565b6000819050602082019050919050565b600082825260208201905092915050565b600061192a826117c7565b611934818561190e565b93506119448185602086016117e3565b61194d8161180d565b840191505092915050565b61196181611857565b82525050565b6119708161175c565b82525050565b600060a0830160008301518482036000860152611993828261191f565b915050602083015184820360208601526119ad828261191f565b91505060408301516119c26040860182611958565b5060608301516119d56060860182611967565b5060808301516119e86080860182611967565b508091505092915050565b60006119ff8383611976565b905092915050565b6000602082019050919050565b6000611a1f826118e2565b611a2981856118ed565b935083602082028501611a3b856118fe565b8060005b85811015611a775784840389528151611a5885826119f3565b9450611a6383611a07565b925060208a01995050600181019050611a3f565b50829750879550505050505092915050565b60006020820190508181036000830152611aa38184611a14565b905092915050565b6000819050919050565b611abe81611aab565b8114611ac957600080fd5b50565b600081359050611adb81611ab5565b92915050565b600060208284031215611af757611af6611732565b5b6000611b0584828501611acc565b91505092915050565b600080fd5b600080fd5b7f4e487b7100000000000000000000000000000000000000000000000000000000600052604160045260246000fd5b611b508261180d565b810181811067ffffffffffffffff82111715611b6f57611b6e611b18565b5b80604052505050565b6000611b82611728565b9050611b8e8282611b47565b919050565b600067ffffffffffffffff821115611bae57611bad611b18565b5b611bb78261180d565b9050602081019050919050565b82818337600083830152505050565b6000611be6611be184611b93565b611b78565b905082815260208101848484011115611c0257611c01611b13565b5b611c0d848285611bc4565b509392505050565b600082601f830112611c2a57611c29611b0e565b5b8135611c3a848260208601611bd3565b91505092915050565b600080600060608486031215611c5c57611c5b611732565b5b600084013567ffffffffffffffff811115611c7a57611c79611737565b5b611c8686828701611c15565b935050602084013567ffffffffffffffff811115611ca757611ca6611737565b5b611cb386828701611c15565b9250506040611cc486828701611785565b9150509250925092565b6000602082019050611ce36000830184611872565b92915050565b7f4e487b7100000000000000000000000000000000000000000000000000000000600052602260045260246000fd5b60006002820490506001821680611d3057607f821691505b602082108103611d4357611d42611ce9565b5b50919050565b7f4e487b7100000000000000000000000000000000000000000000000000000000600052603260045260246000fd5b7f4e487b7100000000000000000000000000000000000000000000000000000000600052601160045260246000fd5b6000611db282611aab565b91507fffffffffffffffffffffffffffffffffffffffffffffffffffffffffffffffff8203611de457611de3611d78565b5b600182019050919050565b7f436f6d6d69746d656e742063616e6e6f7420626520656d707479000000000000600082015250565b6000611e25601a836117d2565b9150611e3082611def565b602082019050919050565b60006020820190508181036000830152611e5481611e18565b9050919050565b7f486173682063616e6e6f7420626520656d707479000000000000000000000000600082015250565b6000611e916014836117d2565b9150611e9c82611e5b565b602082019050919050565b60006020820190508181036000830152611ec081611e84565b9050919050565b7f436572746966696361746520616c72656164792065786973747320666f72207460008201527f6869732072657175657374657200000000000000000000000000000000000000602082015250565b6000611f23602d836117d2565b9150611f2e82611ec7565b604082019050919050565b60006020820190508181036000830152611f5281611f16565b9050919050565b60008160601b9050919050565b6000611f7182611f59565b9050919050565b6000611f8382611f66565b9050919050565b611f9b611f968261175c565b611f78565b82525050565b6000819050919050565b611fbc611fb782611aab565b611fa1565b82525050565b6000611fce8285611f8a565b601482019150611fde8284611fab565b6020820191508190509392505050565b7f4e487b7100000000000000000000000000000000000000000000000000000000600052601260045260246000fd5b600061202882611aab565b915061203383611aab565b92508261204357612042611fee565b5b828206905092915050565b60008190508160005260206000209050919050565b60006020601f8301049050919050565b600082821b905092915050565b6000600883026120b07fffffffffffffffffffffffffffffffffffffffffffffffffffffffffffffffff82612073565b6120ba8683612073565b95508019841693508086168417925050509392505050565b6000819050919050565b60006120f76120f26120ed84611aab565b6120d2565b611aab565b9050919050565b6000819050919050565b612111836120dc565b61212561211d826120fe565b848454612080565b825550505050565b600090565b61213a61212d565b612145818484612108565b505050565b5b818110156121695761215e600082612132565b60018101905061214b565b5050565b601f8211156121ae5761217f8161204e565b61218884612063565b81016020851015612197578190505b6121ab6121a385612063565b83018261214a565b50505b505050565b600082821c905092915050565b60006121d1600019846008026121b3565b1980831691505092915050565b60006121ea83836121c0565b9150826002028217905092915050565b612203826117c7565b67ffffffffffffffff81111561221c5761221b611b18565b5b6122268254611d18565b61223182828561216d565b600060209050601f8311600181146122645760008415612252578287015190505b61225c85826121de565b8655506122c4565b601f1984166122728661204e565b60005b8281101561229a57848901518255600182019150602085019450602081019050612275565b868310156122b757848901516122b3601f8916826121c0565b8355505b6001600288020188555050505b505050505050565b7f4e6f20676f7665726e6d656e74206f6666696369616c73206172652073657400600082015250565b6000612302601f836117d2565b915061230d826122cc565b602082019050919050565b60006020820190508181036000830152612331816122f5565b9050919050565b7f4f6e6c79206120676f7665726e6d656e74206f6666696369616c2063616e206360008201527f616c6c2074686973206d6574686f640000000000000000000000000000000000602082015250565b6000612394602f836117d2565b915061239f82612338565b604082019050919050565b600060208201905081810360008301526123c381612387565b9050919050565b7f436572746966696361746520646f6573206e6f74206578697374000000000000600082015250565b6000612400601a836117d2565b915061240b826123ca565b602082019050919050565b6000602082019050818103600083015261242f816123f3565b9050919050565b7f4f6e6c79207468652061737369676e65642076657269666965722063616e207660008201527f616c696461746520746869732063657274696669636174650000000000000000602082015250565b60006124926038836117d2565b915061249d82612436565b604082019050919050565b600060208201905081810360008301526124c181612485565b905091905056fea2646970667358221220146d92322704d6205a1bb58672e7ba19d4e0c8a7c6bfea30a228269e5d9b8ed664736f6c634300081c0033",
  "linkReferences": {},
  "deployedLinkReferences": {}
}