{
  "_format": "hh-sol-artifact-1",
  "contractName": "CertificateRegister",
  "sourceName": "contracts/CertificateRegister.sol",
  "abi": [
    {
      "inputs": [
        {
          "internalType": "address[]",
          "name": "_govtOfficials",
          "type": "address[]"
        }
      ],
      "stateMutability": "nonpayable",
      "type": "constructor"
    },
    {
      "inputs": [
        {
          "internalType": "address",
          "name": "",
          "type": "address"
        }
      ],
      "name": "certificates",
      "outputs": [
        {
          "internalType": "string",
          "name": "commitment",
          "type": "string"
        },
        {
          "internalType": "string",
          "name": "hash",
          "type": "string"
        },
        {
          "internalType": "bool",
          "name": "verified",
          "type": "bool"
        },
        {
          "internalType": "address",
          "name": "requester",
          "type": "address"
        },
        {
          "internalType": "address",
          "name": "verifier",
          "type": "address"
        }
      ],
      "stateMutability": "view",
      "type": "function"
    },
    {
      "inputs": [
        {
          "internalType": "address",
          "name": "_user",
          "type": "address"
        }
      ],
      "name": "getCertificate",
      "outputs": [
        {
          "internalType": "string",
          "name": "commitment",
          "type": "string"
        },
        {
          "internalType": "string",
          "name": "hash",
          "type": "string"
        },
        {
          "internalType": "bool",
          "name": "verified",
          "type": "bool"
        },
        {
          "internalType": "address",
          "name": "requester",
          "type": "address"
        },
        {
          "internalType": "address",
          "name": "verifier",
          "type": "address"
        }
      ],
      "stateMutability": "view",
      "type": "function"
    },
    {
      "inputs": [
        {
          "internalType": "uint256",
          "name": "",
          "type": "uint256"
        }
      ],
      "name": "govtOfficials",
      "outputs": [
        {
          "internalType": "address",
          "name": "",
          "type": "address"
        }
      ],
      "stateMutability": "view",
      "type": "function"
    },
    {
      "inputs": [
        {
          "internalType": "string",
          "name": "_commitment",
          "type": "string"
        },
        {
          "internalType": "string",
          "name": "_hash",
          "type": "string"
        },
        {
          "internalType": "address",
          "name": "_requester",
          "type": "address"
        }
      ],
      "name": "registerCertificate",
      "outputs": [],
      "stateMutability": "nonpayable",
      "type": "function"
    },
    {
      "inputs": [
        {
          "internalType": "address",
          "name": "_user",
          "type": "address"
        }
      ],
      "name": "validateCertificate",
      "outputs": [],
      "stateMutability": "nonpayable",
      "type": "function"
    }
  ],
  "bytecode": "0x608060405234801561001057600080fd5b50604051611c91380380611c9183398181016040528101906100329190610305565b6000815111610076576040517f08c379a000000000000000000000000000000000000000000000000000000000815260040161006d906103d1565b60405180910390fd5b806001908051906020019061008c929190610093565b50506103f1565b82805482825590600052602060002090810192821561010c579160200282015b8281111561010b5782518260006101000a81548173ffffffffffffffffffffffffffffffffffffffff021916908373ffffffffffffffffffffffffffffffffffffffff160217905550916020019190600101906100b3565b5b509050610119919061011d565b5090565b5b8082111561013657600081600090555060010161011e565b5090565b6000604051905090565b600080fd5b600080fd5b600080fd5b6000601f19601f8301169050919050565b7f4e487b7100000000000000000000000000000000000000000000000000000000600052604160045260246000fd5b61019c82610153565b810181811067ffffffffffffffff821117156101bb576101ba610164565b5b80604052505050565b60006101ce61013a565b90506101da8282610193565b919050565b600067ffffffffffffffff8211156101fa576101f9610164565b5b602082029050602081019050919050565b600080fd5b600073ffffffffffffffffffffffffffffffffffffffff82169050919050565b600061023b82610210565b9050919050565b61024b81610230565b811461025657600080fd5b50565b60008151905061026881610242565b92915050565b600061028161027c846101df565b6101c4565b905080838252602082019050602084028301858111156102a4576102a361020b565b5b835b818110156102cd57806102b98882610259565b8452602084019350506020810190506102a6565b5050509392505050565b600082601f8301126102ec576102eb61014e565b5b81516102fc84826020860161026e565b91505092915050565b60006020828403121561031b5761031a610144565b5b600082015167ffffffffffffffff81111561033957610338610149565b5b610345848285016102d7565b91505092915050565b600082825260208201905092915050565b7f4174206c65617374206f6e6520676f7665726e6d656e74206f6666696369616c60008201527f206d757374206265207370656369666965640000000000000000000000000000602082015250565b60006103bb60328361034e565b91506103c68261035f565b604082019050919050565b600060208201905081810360008301526103ea816103ae565b9050919050565b611891806104006000396000f3fe608060405234801561001057600080fd5b50600436106100565760003560e01c806216e5261461005b578063126727701461008f578063cf1a7eee146100ab578063f47eb9f6146100c7578063fd531e93146100f7575b600080fd5b61007560048036038101906100709190610d6d565b61012b565b604051610086959493929190610e54565b60405180910390f35b6100a960048036038101906100a49190610fea565b6102be565b005b6100c560048036038101906100c09190610d6d565b610733565b005b6100e160048036038101906100dc91906110ab565b6109dd565b6040516100ee91906110d8565b60405180910390f35b610111600480360381019061010c9190610d6d565b610a1c565b604051610122959493929190610e54565b60405180910390f35b600060205280600052604060002060009150905080600001805461014e90611122565b80601f016020809104026020016040519081016040528092919081815260200182805461017a90611122565b80156101c75780601f1061019c576101008083540402835291602001916101c7565b820191906000526020600020905b8154815290600101906020018083116101aa57829003601f168201915b5050505050908060010180546101dc90611122565b80601f016020809104026020016040519081016040528092919081815260200182805461020890611122565b80156102555780601f1061022a57610100808354040283529160200191610255565b820191906000526020600020905b81548152906001019060200180831161023857829003601f168201915b5050505050908060020160009054906101000a900460ff16908060020160019054906101000a900473ffffffffffffffffffffffffffffffffffffffff16908060030160009054906101000a900473ffffffffffffffffffffffffffffffffffffffff16905085565b600060018054905011610306576040517f08c379a00000000000000000000000000000000000000000000000000000000081526004016102fd9061119f565b60405180910390fd5b6000805b60018054905081101561039e573373ffffffffffffffffffffffffffffffffffffffff1660018281548110610342576103416111bf565b5b9060005260206000200160009054906101000a900473ffffffffffffffffffffffffffffffffffffffff1673ffffffffffffffffffffffffffffffffffffffff1603610391576001915061039e565b808060010191505061030a565b50806103df576040517f08c379a00000000000000000000000000000000000000000000000000000000081526004016103d690611260565b60405180910390fd5b6000845111610423576040517f08c379a000000000000000000000000000000000000000000000000000000000815260040161041a906112cc565b60405180910390fd5b6000835111610467576040517f08c379a000000000000000000000000000000000000000000000000000000000815260040161045e90611338565b60405180910390fd5b600073ffffffffffffffffffffffffffffffffffffffff166000808473ffffffffffffffffffffffffffffffffffffffff1673ffffffffffffffffffffffffffffffffffffffff16815260200190815260200160002060020160019054906101000a900473ffffffffffffffffffffffffffffffffffffffff1673ffffffffffffffffffffffffffffffffffffffff1614610537576040517f08c379a000000000000000000000000000000000000000000000000000000000815260040161052e906113ca565b60405180910390fd5b60006001805490508342604051602001610552929190611453565b6040516020818303038152906040528051906020012060001c61057591906114ae565b905060006001828154811061058d5761058c6111bf565b5b9060005260206000200160009054906101000a900473ffffffffffffffffffffffffffffffffffffffff1690506040518060a001604052808781526020018681526020016000151581526020018573ffffffffffffffffffffffffffffffffffffffff1681526020018273ffffffffffffffffffffffffffffffffffffffff168152506000808673ffffffffffffffffffffffffffffffffffffffff1673ffffffffffffffffffffffffffffffffffffffff1681526020019081526020016000206000820151816000019081610663919061168b565b506020820151816001019081610679919061168b565b5060408201518160020160006101000a81548160ff02191690831515021790555060608201518160020160016101000a81548173ffffffffffffffffffffffffffffffffffffffff021916908373ffffffffffffffffffffffffffffffffffffffff16021790555060808201518160030160006101000a81548173ffffffffffffffffffffffffffffffffffffffff021916908373ffffffffffffffffffffffffffffffffffffffff160217905550905050505050505050565b60006001805490501161077b576040517f08c379a00000000000000000000000000000000000000000000000000000000081526004016107729061119f565b60405180910390fd5b6000805b600180549050811015610813573373ffffffffffffffffffffffffffffffffffffffff16600182815481106107b7576107b66111bf565b5b9060005260206000200160009054906101000a900473ffffffffffffffffffffffffffffffffffffffff1673ffffffffffffffffffffffffffffffffffffffff16036108065760019150610813565b808060010191505061077f565b5080610854576040517f08c379a000000000000000000000000000000000000000000000000000000000815260040161084b90611260565b60405180910390fd5b60008060008473ffffffffffffffffffffffffffffffffffffffff1673ffffffffffffffffffffffffffffffffffffffff1681526020019081526020016000209050600073ffffffffffffffffffffffffffffffffffffffff168160020160019054906101000a900473ffffffffffffffffffffffffffffffffffffffff1673ffffffffffffffffffffffffffffffffffffffff1603610929576040517f08c379a0000000000000000000000000000000000000000000000000000000008152600401610920906117a9565b60405180910390fd5b3373ffffffffffffffffffffffffffffffffffffffff168160030160009054906101000a900473ffffffffffffffffffffffffffffffffffffffff1673ffffffffffffffffffffffffffffffffffffffff16146109bb576040517f08c379a00000000000000000000000000000000000000000000000000000000081526004016109b29061183b565b60405180910390fd5b60018160020160006101000a81548160ff021916908315150217905550505050565b600181815481106109ed57600080fd5b906000526020600020016000915054906101000a900473ffffffffffffffffffffffffffffffffffffffff1681565b6060806000806000806000808873ffffffffffffffffffffffffffffffffffffffff1673ffffffffffffffffffffffffffffffffffffffff1681526020019081526020016000206040518060a0016040529081600082018054610a7e90611122565b80601f0160208091040260200160405190810160405280929190818152602001828054610aaa90611122565b8015610af75780601f10610acc57610100808354040283529160200191610af7565b820191906000526020600020905b815481529060010190602001808311610ada57829003601f168201915b50505050508152602001600182018054610b1090611122565b80601f0160208091040260200160405190810160405280929190818152602001828054610b3c90611122565b8015610b895780601f10610b5e57610100808354040283529160200191610b89565b820191906000526020600020905b815481529060010190602001808311610b6c57829003601f168201915b505050505081526020016002820160009054906101000a900460ff161515151581526020016002820160019054906101000a900473ffffffffffffffffffffffffffffffffffffffff1673ffffffffffffffffffffffffffffffffffffffff1673ffffffffffffffffffffffffffffffffffffffff1681526020016003820160009054906101000a900473ffffffffffffffffffffffffffffffffffffffff1673ffffffffffffffffffffffffffffffffffffffff1673ffffffffffffffffffffffffffffffffffffffff16815250509050600073ffffffffffffffffffffffffffffffffffffffff16816060015173ffffffffffffffffffffffffffffffffffffffff1603610cce576040517f08c379a0000000000000000000000000000000000000000000000000000000008152600401610cc5906117a9565b60405180910390fd5b80600001518160200151826040015183606001518460800151955095509550955095505091939590929450565b6000604051905090565b600080fd5b600080fd5b600073ffffffffffffffffffffffffffffffffffffffff82169050919050565b6000610d3a82610d0f565b9050919050565b610d4a81610d2f565b8114610d5557600080fd5b50565b600081359050610d6781610d41565b92915050565b600060208284031215610d8357610d82610d05565b5b6000610d9184828501610d58565b91505092915050565b600081519050919050565b600082825260208201905092915050565b60005b83811015610dd4578082015181840152602081019050610db9565b60008484015250505050565b6000601f19601f8301169050919050565b6000610dfc82610d9a565b610e068185610da5565b9350610e16818560208601610db6565b610e1f81610de0565b840191505092915050565b60008115159050919050565b610e3f81610e2a565b82525050565b610e4e81610d2f565b82525050565b600060a0820190508181036000830152610e6e8188610df1565b90508181036020830152610e828187610df1565b9050610e916040830186610e36565b610e9e6060830185610e45565b610eab6080830184610e45565b9695505050505050565b600080fd5b600080fd5b7f4e487b7100000000000000000000000000000000000000000000000000000000600052604160045260246000fd5b610ef782610de0565b810181811067ffffffffffffffff82111715610f1657610f15610ebf565b5b80604052505050565b6000610f29610cfb565b9050610f358282610eee565b919050565b600067ffffffffffffffff821115610f5557610f54610ebf565b5b610f5e82610de0565b9050602081019050919050565b82818337600083830152505050565b6000610f8d610f8884610f3a565b610f1f565b905082815260208101848484011115610fa957610fa8610eba565b5b610fb4848285610f6b565b509392505050565b600082601f830112610fd157610fd0610eb5565b5b8135610fe1848260208601610f7a565b91505092915050565b60008060006060848603121561100357611002610d05565b5b600084013567ffffffffffffffff81111561102157611020610d0a565b5b61102d86828701610fbc565b935050602084013567ffffffffffffffff81111561104e5761104d610d0a565b5b61105a86828701610fbc565b925050604061106b86828701610d58565b9150509250925092565b6000819050919050565b61108881611075565b811461109357600080fd5b50565b6000813590506110a58161107f565b92915050565b6000602082840312156110c1576110c0610d05565b5b60006110cf84828501611096565b91505092915050565b60006020820190506110ed6000830184610e45565b92915050565b7f4e487b7100000000000000000000000000000000000000000000000000000000600052602260045260246000fd5b6000600282049050600182168061113a57607f821691505b60208210810361114d5761114c6110f3565b5b50919050565b7f4e6f20676f7665726e6d656e74206f6666696369616c73206172652073657400600082015250565b6000611189601f83610da5565b915061119482611153565b602082019050919050565b600060208201905081810360008301526111b88161117c565b9050919050565b7f4e487b7100000000000000000000000000000000000000000000000000000000600052603260045260246000fd5b7f4f6e6c79206120676f7665726e6d656e74206f6666696369616c2063616e206360008201527f616c6c2074686973206d6574686f640000000000000000000000000000000000602082015250565b600061124a602f83610da5565b9150611255826111ee565b604082019050919050565b600060208201905081810360008301526112798161123d565b9050919050565b7f436f6d6d69746d656e742063616e6e6f7420626520656d707479000000000000600082015250565b60006112b6601a83610da5565b91506112c182611280565b602082019050919050565b600060208201905081810360008301526112e5816112a9565b9050919050565b7f486173682063616e6e6f7420626520656d707479000000000000000000000000600082015250565b6000611322601483610da5565b915061132d826112ec565b602082019050919050565b6000602082019050818103600083015261135181611315565b9050919050565b7f436572746966696361746520616c72656164792065786973747320666f72207460008201527f6869732072657175657374657200000000000000000000000000000000000000602082015250565b60006113b4602d83610da5565b91506113bf82611358565b604082019050919050565b600060208201905081810360008301526113e3816113a7565b9050919050565b60008160601b9050919050565b6000611402826113ea565b9050919050565b6000611414826113f7565b9050919050565b61142c61142782610d2f565b611409565b82525050565b6000819050919050565b61144d61144882611075565b611432565b82525050565b600061145f828561141b565b60148201915061146f828461143c565b6020820191508190509392505050565b7f4e487b7100000000000000000000000000000000000000000000000000000000600052601260045260246000fd5b60006114b982611075565b91506114c483611075565b9250826114d4576114d361147f565b5b828206905092915050565b60008190508160005260206000209050919050565b60006020601f8301049050919050565b600082821b905092915050565b6000600883026115417fffffffffffffffffffffffffffffffffffffffffffffffffffffffffffffffff82611504565b61154b8683611504565b95508019841693508086168417925050509392505050565b6000819050919050565b600061158861158361157e84611075565b611563565b611075565b9050919050565b6000819050919050565b6115a28361156d565b6115b66115ae8261158f565b848454611511565b825550505050565b600090565b6115cb6115be565b6115d6818484611599565b505050565b5b818110156115fa576115ef6000826115c3565b6001810190506115dc565b5050565b601f82111561163f57611610816114df565b611619846114f4565b81016020851015611628578190505b61163c611634856114f4565b8301826115db565b50505b505050565b600082821c905092915050565b600061166260001984600802611644565b1980831691505092915050565b600061167b8383611651565b9150826002028217905092915050565b61169482610d9a565b67ffffffffffffffff8111156116ad576116ac610ebf565b5b6116b78254611122565b6116c28282856115fe565b600060209050601f8311600181146116f557600084156116e3578287015190505b6116ed858261166f565b865550611755565b601f198416611703866114df565b60005b8281101561172b57848901518255600182019150602085019450602081019050611706565b868310156117485784890151611744601f891682611651565b8355505b6001600288020188555050505b505050505050565b7f436572746966696361746520646f6573206e6f74206578697374000000000000600082015250565b6000611793601a83610da5565b915061179e8261175d565b602082019050919050565b600060208201905081810360008301526117c281611786565b9050919050565b7f4f6e6c79207468652061737369676e65642076657269666965722063616e207660008201527f616c696461746520746869732063657274696669636174650000000000000000602082015250565b6000611825603883610da5565b9150611830826117c9565b604082019050919050565b6000602082019050818103600083015261185481611818565b905091905056fea2646970667358221220e24177e90f8878940f187ab3cd3639c7e6883f43e36e274349b138987ab760ed64736f6c634300081b0033",
  "linkReferences": {},
  "deployedLinkReferences": {}
}